{
  "_format": "hh-sol-artifact-1",
  "contractName": "GameSoulbound",
  "sourceName": "contracts/nft.sol",
  "abi": [
    {
      "inputs": [],
      "stateMutability": "nonpayable",
      "type": "constructor"
    },
    {
      "anonymous": false,
      "inputs": [
        {
          "indexed": true,
          "internalType": "address",
          "name": "owner",
          "type": "address"
        },
        {
          "indexed": true,
          "internalType": "address",
          "name": "approved",
          "type": "address"
        },
        {
          "indexed": true,
          "internalType": "uint256",
          "name": "tokenId",
          "type": "uint256"
        }
      ],
      "name": "Approval",
      "type": "event"
    },
    {
      "anonymous": false,
      "inputs": [
        {
          "indexed": true,
          "internalType": "address",
          "name": "owner",
          "type": "address"
        },
        {
          "indexed": true,
          "internalType": "address",
          "name": "operator",
          "type": "address"
        },
        {
          "indexed": false,
          "internalType": "bool",
          "name": "approved",
          "type": "bool"
        }
      ],
      "name": "ApprovalForAll",
      "type": "event"
    },
    {
      "anonymous": false,
      "inputs": [
        {
          "indexed": true,
          "internalType": "address",
          "name": "previousOwner",
          "type": "address"
        },
        {
          "indexed": true,
          "internalType": "address",
          "name": "newOwner",
          "type": "address"
        }
      ],
      "name": "OwnershipTransferred",
      "type": "event"
    },
    {
      "anonymous": false,
      "inputs": [
        {
          "indexed": true,
          "internalType": "address",
          "name": "from",
          "type": "address"
        },
        {
          "indexed": true,
          "internalType": "address",
          "name": "to",
          "type": "address"
        },
        {
          "indexed": true,
          "internalType": "uint256",
          "name": "tokenId",
          "type": "uint256"
        }
      ],
      "name": "Transfer",
      "type": "event"
    },
    {
      "inputs": [
        {
          "internalType": "address",
          "name": "to",
          "type": "address"
        },
        {
          "internalType": "uint256",
          "name": "tokenId",
          "type": "uint256"
        }
      ],
      "name": "approve",
      "outputs": [],
      "stateMutability": "nonpayable",
      "type": "function"
    },
    {
      "inputs": [
        {
          "internalType": "address",
          "name": "owner",
          "type": "address"
        }
      ],
      "name": "balanceOf",
      "outputs": [
        {
          "internalType": "uint256",
          "name": "",
          "type": "uint256"
        }
      ],
      "stateMutability": "view",
      "type": "function"
    },
    {
      "inputs": [
        {
          "internalType": "uint256",
          "name": "tokenId",
          "type": "uint256"
        }
      ],
      "name": "generateBase64Image",
      "outputs": [
        {
          "internalType": "string",
          "name": "",
          "type": "string"
        }
      ],
      "stateMutability": "view",
      "type": "function"
    },
    {
      "inputs": [
        {
          "internalType": "uint256",
          "name": "tokenId",
          "type": "uint256"
        }
      ],
      "name": "generateImage",
      "outputs": [
        {
          "internalType": "string",
          "name": "",
          "type": "string"
        }
      ],
      "stateMutability": "view",
      "type": "function"
    },
    {
      "inputs": [
        {
          "internalType": "uint256",
          "name": "tokenId",
          "type": "uint256"
        }
      ],
      "name": "getApproved",
      "outputs": [
        {
          "internalType": "address",
          "name": "",
          "type": "address"
        }
      ],
      "stateMutability": "view",
      "type": "function"
    },
    {
      "inputs": [
        {
          "internalType": "address",
          "name": "owner",
          "type": "address"
        },
        {
          "internalType": "address",
          "name": "operator",
          "type": "address"
        }
      ],
      "name": "isApprovedForAll",
      "outputs": [
        {
          "internalType": "bool",
          "name": "",
          "type": "bool"
        }
      ],
      "stateMutability": "view",
      "type": "function"
    },
    {
      "inputs": [
        {
          "internalType": "address",
          "name": "",
          "type": "address"
        }
      ],
      "name": "minted",
      "outputs": [
        {
          "internalType": "bool",
          "name": "",
          "type": "bool"
        }
      ],
      "stateMutability": "view",
      "type": "function"
    },
    {
      "inputs": [],
      "name": "name",
      "outputs": [
        {
          "internalType": "string",
          "name": "",
          "type": "string"
        }
      ],
      "stateMutability": "view",
      "type": "function"
    },
    {
      "inputs": [],
      "name": "owner",
      "outputs": [
        {
          "internalType": "address",
          "name": "",
          "type": "address"
        }
      ],
      "stateMutability": "view",
      "type": "function"
    },
    {
      "inputs": [
        {
          "internalType": "uint256",
          "name": "tokenId",
          "type": "uint256"
        }
      ],
      "name": "ownerOf",
      "outputs": [
        {
          "internalType": "address",
          "name": "",
          "type": "address"
        }
      ],
      "stateMutability": "view",
      "type": "function"
    },
    {
      "inputs": [
        {
          "internalType": "address",
          "name": "",
          "type": "address"
        }
      ],
      "name": "players",
      "outputs": [
        {
          "internalType": "uint256",
          "name": "tokenId",
          "type": "uint256"
        }
      ],
      "stateMutability": "view",
      "type": "function"
    },
    {
      "inputs": [],
      "name": "renounceOwnership",
      "outputs": [],
      "stateMutability": "nonpayable",
      "type": "function"
    },
    {
      "inputs": [],
      "name": "safeMint",
      "outputs": [],
      "stateMutability": "nonpayable",
      "type": "function"
    },
    {
      "inputs": [
        {
          "internalType": "address",
          "name": "from",
          "type": "address"
        },
        {
          "internalType": "address",
          "name": "to",
          "type": "address"
        },
        {
          "internalType": "uint256",
          "name": "tokenId",
          "type": "uint256"
        }
      ],
      "name": "safeTransferFrom",
      "outputs": [],
      "stateMutability": "nonpayable",
      "type": "function"
    },
    {
      "inputs": [
        {
          "internalType": "address",
          "name": "from",
          "type": "address"
        },
        {
          "internalType": "address",
          "name": "to",
          "type": "address"
        },
        {
          "internalType": "uint256",
          "name": "tokenId",
          "type": "uint256"
        },
        {
          "internalType": "bytes",
          "name": "data",
          "type": "bytes"
        }
      ],
      "name": "safeTransferFrom",
      "outputs": [],
      "stateMutability": "nonpayable",
      "type": "function"
    },
    {
      "inputs": [
        {
          "internalType": "address",
          "name": "operator",
          "type": "address"
        },
        {
          "internalType": "bool",
          "name": "approved",
          "type": "bool"
        }
      ],
      "name": "setApprovalForAll",
      "outputs": [],
      "stateMutability": "nonpayable",
      "type": "function"
    },
    {
      "inputs": [
        {
          "internalType": "bytes4",
          "name": "interfaceId",
          "type": "bytes4"
        }
      ],
      "name": "supportsInterface",
      "outputs": [
        {
          "internalType": "bool",
          "name": "",
          "type": "bool"
        }
      ],
      "stateMutability": "view",
      "type": "function"
    },
    {
      "inputs": [],
      "name": "symbol",
      "outputs": [
        {
          "internalType": "string",
          "name": "",
          "type": "string"
        }
      ],
      "stateMutability": "view",
      "type": "function"
    },
    {
      "inputs": [
        {
          "internalType": "uint256",
          "name": "tokenId",
          "type": "uint256"
        }
      ],
      "name": "tokenURI",
      "outputs": [
        {
          "internalType": "string",
          "name": "",
          "type": "string"
        }
      ],
      "stateMutability": "view",
      "type": "function"
    },
    {
      "inputs": [
        {
          "internalType": "address",
          "name": "from",
          "type": "address"
        },
        {
          "internalType": "address",
          "name": "to",
          "type": "address"
        },
        {
          "internalType": "uint256",
          "name": "tokenId",
          "type": "uint256"
        }
      ],
      "name": "transferFrom",
      "outputs": [],
      "stateMutability": "nonpayable",
      "type": "function"
    },
    {
      "inputs": [
        {
          "internalType": "address",
          "name": "newOwner",
          "type": "address"
        }
      ],
      "name": "transferOwnership",
      "outputs": [],
      "stateMutability": "nonpayable",
      "type": "function"
    },
    {
      "inputs": [
        {
          "internalType": "uint256",
          "name": "gameid",
          "type": "uint256"
        },
        {
          "internalType": "uint256",
          "name": "score",
          "type": "uint256"
        }
      ],
      "name": "verify",
      "outputs": [],
      "stateMutability": "nonpayable",
      "type": "function"
    }
  ],
  "bytecode": "0x60806040523480156200001157600080fd5b506040518060400160405280600d81526020017f47616d65536f756c426f756e64000000000000000000000000000000000000008152506040518060400160405280600581526020017f472d53425400000000000000000000000000000000000000000000000000000081525081600090816200008f919062000412565b508060019081620000a1919062000412565b505050620000c4620000b8620000ca60201b60201c565b620000d260201b60201c565b620004f9565b600033905090565b6000600760009054906101000a900473ffffffffffffffffffffffffffffffffffffffff16905081600760006101000a81548173ffffffffffffffffffffffffffffffffffffffff021916908373ffffffffffffffffffffffffffffffffffffffff1602179055508173ffffffffffffffffffffffffffffffffffffffff168173ffffffffffffffffffffffffffffffffffffffff167f8be0079c531659141344cd1fd0a4f28419497f9722a3daafe3b4186f6b6457e060405160405180910390a35050565b600081519050919050565b7f4e487b7100000000000000000000000000000000000000000000000000000000600052604160045260246000fd5b7f4e487b7100000000000000000000000000000000000000000000000000000000600052602260045260246000fd5b600060028204905060018216806200021a57607f821691505b60208210810362000230576200022f620001d2565b5b50919050565b60008190508160005260206000209050919050565b60006020601f8301049050919050565b600082821b905092915050565b6000600883026200029a7fffffffffffffffffffffffffffffffffffffffffffffffffffffffffffffffff826200025b565b620002a686836200025b565b95508019841693508086168417925050509392505050565b6000819050919050565b6000819050919050565b6000620002f3620002ed620002e784620002be565b620002c8565b620002be565b9050919050565b6000819050919050565b6200030f83620002d2565b620003276200031e82620002fa565b84845462000268565b825550505050565b600090565b6200033e6200032f565b6200034b81848462000304565b505050565b5b8181101562000373576200036760008262000334565b60018101905062000351565b5050565b601f821115620003c2576200038c8162000236565b62000397846200024b565b81016020851015620003a7578190505b620003bf620003b6856200024b565b83018262000350565b50505b505050565b600082821c905092915050565b6000620003e760001984600802620003c7565b1980831691505092915050565b6000620004028383620003d4565b9150826002028217905092915050565b6200041d8262000198565b67ffffffffffffffff811115620004395762000438620001a3565b5b62000445825462000201565b6200045282828562000377565b600060209050601f8311600181146200048a576000841562000475578287015190505b620004818582620003f4565b865550620004f1565b601f1984166200049a8662000236565b60005b82811015620004c4578489015182556001820191506020850194506020810190506200049d565b86831015620004e45784890151620004e0601f891682620003d4565b8355505b6001600288020188555050505b505050505050565b613e7180620005096000396000f3fe608060405234801561001057600080fd5b50600436106101425760003560e01c806370a08231116100b8578063a48b3b8f1161007c578063a48b3b8f14610361578063b88d4fde14610391578063c87b56dd146103ad578063e2eb41ff146103dd578063e985e9c51461040d578063f2fde38b1461043d57610142565b806370a08231146102cf578063715018a6146102ff5780638da5cb5b1461030957806395d89b4114610327578063a22cb4651461034557610142565b806323b872dd1161010a57806323b872dd1461021157806341161b101461022d57806342842e0e146102495780634b44d812146102655780636352211e146102955780636871ee40146102c557610142565b806301ffc9a71461014757806306fdde0314610177578063081812fc14610195578063095ea7b3146101c55780631e7269c5146101e1575b600080fd5b610161600480360381019061015c91906120e2565b610459565b60405161016e919061212a565b60405180910390f35b61017f61053b565b60405161018c91906121d5565b60405180910390f35b6101af60048036038101906101aa919061222d565b6105cd565b6040516101bc919061229b565b60405180910390f35b6101df60048036038101906101da91906122e2565b610613565b005b6101fb60048036038101906101f69190612322565b61072a565b604051610208919061212a565b60405180910390f35b61022b6004803603810190610226919061234f565b61074a565b005b610247600480360381019061024291906123a2565b6107aa565b005b610263600480360381019061025e919061234f565b61095a565b005b61027f600480360381019061027a919061222d565b61097a565b60405161028c91906121d5565b60405180910390f35b6102af60048036038101906102aa919061222d565b610a01565b6040516102bc919061229b565b60405180910390f35b6102cd610a87565b005b6102e960048036038101906102e49190612322565b610bde565b6040516102f691906123f1565b60405180910390f35b610307610c95565b005b610311610ca9565b60405161031e919061229b565b60405180910390f35b61032f610cd3565b60405161033c91906121d5565b60405180910390f35b61035f600480360381019061035a9190612438565b610d65565b005b61037b6004803603810190610376919061222d565b610d7b565b60405161038891906121d5565b60405180910390f35b6103ab60048036038101906103a691906125ad565b610d95565b005b6103c760048036038101906103c2919061222d565b610df7565b6040516103d491906121d5565b60405180910390f35b6103f760048036038101906103f29190612322565b610eff565b60405161040491906123f1565b60405180910390f35b61042760048036038101906104229190612630565b610f1d565b604051610434919061212a565b60405180910390f35b61045760048036038101906104529190612322565b610fb1565b005b60007f80ac58cd000000000000000000000000000000000000000000000000000000007bffffffffffffffffffffffffffffffffffffffffffffffffffffffff1916827bffffffffffffffffffffffffffffffffffffffffffffffffffffffff1916148061052457507f5b5e139f000000000000000000000000000000000000000000000000000000007bffffffffffffffffffffffffffffffffffffffffffffffffffffffff1916827bffffffffffffffffffffffffffffffffffffffffffffffffffffffff1916145b80610534575061053382611034565b5b9050919050565b60606000805461054a9061269f565b80601f01602080910402602001604051908101604052809291908181526020018280546105769061269f565b80156105c35780601f10610598576101008083540402835291602001916105c3565b820191906000526020600020905b8154815290600101906020018083116105a657829003601f168201915b5050505050905090565b60006105d88261109e565b6004600083815260200190815260200160002060009054906101000a900473ffffffffffffffffffffffffffffffffffffffff169050919050565b600061061e82610a01565b90508073ffffffffffffffffffffffffffffffffffffffff168373ffffffffffffffffffffffffffffffffffffffff160361068e576040517f08c379a000000000000000000000000000000000000000000000000000000000815260040161068590612742565b60405180910390fd5b8073ffffffffffffffffffffffffffffffffffffffff166106ad6110e9565b73ffffffffffffffffffffffffffffffffffffffff1614806106dc57506106db816106d66110e9565b610f1d565b5b61071b576040517f08c379a0000000000000000000000000000000000000000000000000000000008152600401610712906127d4565b60405180910390fd5b61072583836110f1565b505050565b60096020528060005260406000206000915054906101000a900460ff1681565b61075b6107556110e9565b826111aa565b61079a576040517f08c379a000000000000000000000000000000000000000000000000000000000815260040161079190612866565b60405180910390fd5b6107a583838361123f565b505050565b60011515600960003373ffffffffffffffffffffffffffffffffffffffff1673ffffffffffffffffffffffffffffffffffffffff16815260200190815260200160002060009054906101000a900460ff1615151461083d576040517f08c379a0000000000000000000000000000000000000000000000000000000008152600401610834906128f8565b60405180910390fd5b6000600a60003373ffffffffffffffffffffffffffffffffffffffff1673ffffffffffffffffffffffffffffffffffffffff1681526020019081526020016000206000015490503373ffffffffffffffffffffffffffffffffffffffff166108a482610a01565b73ffffffffffffffffffffffffffffffffffffffff16146108fa576040517f08c379a00000000000000000000000000000000000000000000000000000000081526004016108f190612964565b60405180910390fd5b81600a60003373ffffffffffffffffffffffffffffffffffffffff1673ffffffffffffffffffffffffffffffffffffffff168152602001908152602001600020600101600085815260200190815260200160002060000181905550505050565b61097583838360405180602001604052806000815250610d95565b505050565b60606109db600a60003373ffffffffffffffffffffffffffffffffffffffff1673ffffffffffffffffffffffffffffffffffffffff168152602001908152602001600020600101600080815260200190815260200160002060000154611538565b6040516020016109eb919061312c565b6040516020818303038152906040529050919050565b600080610a0d83611698565b9050600073ffffffffffffffffffffffffffffffffffffffff168173ffffffffffffffffffffffffffffffffffffffff1603610a7e576040517f08c379a0000000000000000000000000000000000000000000000000000000008152600401610a759061324a565b60405180910390fd5b80915050919050565b60001515600960003373ffffffffffffffffffffffffffffffffffffffff1673ffffffffffffffffffffffffffffffffffffffff16815260200190815260200160002060009054906101000a900460ff16151514610b1a576040517f08c379a0000000000000000000000000000000000000000000000000000000008152600401610b11906132dc565b60405180910390fd5b6001600960003373ffffffffffffffffffffffffffffffffffffffff1673ffffffffffffffffffffffffffffffffffffffff16815260200190815260200160002060006101000a81548160ff0219169083151502179055506000610b7e60086116d5565b9050610b8a60086116e3565b610b9433826116f9565b80600a60003373ffffffffffffffffffffffffffffffffffffffff1673ffffffffffffffffffffffffffffffffffffffff1681526020019081526020016000206000018190555050565b60008073ffffffffffffffffffffffffffffffffffffffff168273ffffffffffffffffffffffffffffffffffffffff1603610c4e576040517f08c379a0000000000000000000000000000000000000000000000000000000008152600401610c459061336e565b60405180910390fd5b600360008373ffffffffffffffffffffffffffffffffffffffff1673ffffffffffffffffffffffffffffffffffffffff168152602001908152602001600020549050919050565b610c9d611717565b610ca76000611795565b565b6000600760009054906101000a900473ffffffffffffffffffffffffffffffffffffffff16905090565b606060018054610ce29061269f565b80601f0160208091040260200160405190810160405280929190818152602001828054610d0e9061269f565b8015610d5b5780601f10610d3057610100808354040283529160200191610d5b565b820191906000526020600020905b815481529060010190602001808311610d3e57829003601f168201915b5050505050905090565b610d77610d706110e9565b838361185b565b5050565b6060610d8e610d898361097a565b6119c7565b9050919050565b610da6610da06110e9565b836111aa565b610de5576040517f08c379a0000000000000000000000000000000000000000000000000000000008152600401610ddc90612866565b60405180910390fd5b610df184848484611b2a565b50505050565b6060610e0282611b86565b610e41576040517f08c379a0000000000000000000000000000000000000000000000000000000008152600401610e3890613400565b60405180910390fd5b6000604051602001610e529061346c565b604051602081830303815290604052905060006040518060400160405280601481526020017f47616d6520736f756c20626f6e6420746f6b656e00000000000000000000000081525090506000610ea885610d7b565b9050610ed6838383604051602001610ec2939291906135fd565b6040516020818303038152906040526119c7565b604051602001610ee691906136b1565b6040516020818303038152906040529350505050919050565b600a6020528060005260406000206000915090508060000154905081565b6000600560008473ffffffffffffffffffffffffffffffffffffffff1673ffffffffffffffffffffffffffffffffffffffff16815260200190815260200160002060008373ffffffffffffffffffffffffffffffffffffffff1673ffffffffffffffffffffffffffffffffffffffff16815260200190815260200160002060009054906101000a900460ff16905092915050565b610fb9611717565b600073ffffffffffffffffffffffffffffffffffffffff168173ffffffffffffffffffffffffffffffffffffffff1603611028576040517f08c379a000000000000000000000000000000000000000000000000000000000815260040161101f90613745565b60405180910390fd5b61103181611795565b50565b60007f01ffc9a7000000000000000000000000000000000000000000000000000000007bffffffffffffffffffffffffffffffffffffffffffffffffffffffff1916827bffffffffffffffffffffffffffffffffffffffffffffffffffffffff1916149050919050565b6110a781611b86565b6110e6576040517f08c379a00000000000000000000000000000000000000000000000000000000081526004016110dd9061324a565b60405180910390fd5b50565b600033905090565b816004600083815260200190815260200160002060006101000a81548173ffffffffffffffffffffffffffffffffffffffff021916908373ffffffffffffffffffffffffffffffffffffffff160217905550808273ffffffffffffffffffffffffffffffffffffffff1661116483610a01565b73ffffffffffffffffffffffffffffffffffffffff167f8c5be1e5ebec7d5bd14f71427d1e84f3dd0314c0f7b2291e5b200ac8c7c3b92560405160405180910390a45050565b6000806111b683610a01565b90508073ffffffffffffffffffffffffffffffffffffffff168473ffffffffffffffffffffffffffffffffffffffff1614806111f857506111f78185610f1d565b5b8061123657508373ffffffffffffffffffffffffffffffffffffffff1661121e846105cd565b73ffffffffffffffffffffffffffffffffffffffff16145b91505092915050565b8273ffffffffffffffffffffffffffffffffffffffff1661125f82610a01565b73ffffffffffffffffffffffffffffffffffffffff16146112b5576040517f08c379a00000000000000000000000000000000000000000000000000000000081526004016112ac906137d7565b60405180910390fd5b600073ffffffffffffffffffffffffffffffffffffffff168273ffffffffffffffffffffffffffffffffffffffff1603611324576040517f08c379a000000000000000000000000000000000000000000000000000000000815260040161131b90613869565b60405180910390fd5b6113318383836001611bc7565b8273ffffffffffffffffffffffffffffffffffffffff1661135182610a01565b73ffffffffffffffffffffffffffffffffffffffff16146113a7576040517f08c379a000000000000000000000000000000000000000000000000000000000815260040161139e906137d7565b60405180910390fd5b6004600082815260200190815260200160002060006101000a81549073ffffffffffffffffffffffffffffffffffffffff02191690556001600360008573ffffffffffffffffffffffffffffffffffffffff1673ffffffffffffffffffffffffffffffffffffffff168152602001908152602001600020600082825403925050819055506001600360008473ffffffffffffffffffffffffffffffffffffffff1673ffffffffffffffffffffffffffffffffffffffff16815260200190815260200160002060008282540192505081905550816002600083815260200190815260200160002060006101000a81548173ffffffffffffffffffffffffffffffffffffffff021916908373ffffffffffffffffffffffffffffffffffffffff160217905550808273ffffffffffffffffffffffffffffffffffffffff168473ffffffffffffffffffffffffffffffffffffffff167fddf252ad1be2c89b69c2b068fc378daa952ba7f163c4a11628f55a4df523b3ef60405160405180910390a46115338383836001611c48565b505050565b60606000820361157f576040518060400160405280600181526020017f30000000000000000000000000000000000000000000000000000000000000008152509050611693565b600082905060005b600082146115b157808061159a906138b8565b915050600a826115aa919061392f565b9150611587565b60008167ffffffffffffffff8111156115cd576115cc612482565b5b6040519080825280601f01601f1916602001820160405280156115ff5781602001600182028036833780820191505090505b5090505b6000851461168c576001826116189190613960565b9150600a856116279190613994565b603061163391906139c5565b60f81b818381518110611649576116486139f9565b5b60200101907effffffffffffffffffffffffffffffffffffffffffffffffffffffffffffff1916908160001a905350600a85611685919061392f565b9450611603565b8093505050505b919050565b60006002600083815260200190815260200160002060009054906101000a900473ffffffffffffffffffffffffffffffffffffffff169050919050565b600081600001549050919050565b6001816000016000828254019250508190555050565b611713828260405180602001604052806000815250611c4e565b5050565b61171f6110e9565b73ffffffffffffffffffffffffffffffffffffffff1661173d610ca9565b73ffffffffffffffffffffffffffffffffffffffff1614611793576040517f08c379a000000000000000000000000000000000000000000000000000000000815260040161178a90613a74565b60405180910390fd5b565b6000600760009054906101000a900473ffffffffffffffffffffffffffffffffffffffff16905081600760006101000a81548173ffffffffffffffffffffffffffffffffffffffff021916908373ffffffffffffffffffffffffffffffffffffffff1602179055508173ffffffffffffffffffffffffffffffffffffffff168173ffffffffffffffffffffffffffffffffffffffff167f8be0079c531659141344cd1fd0a4f28419497f9722a3daafe3b4186f6b6457e060405160405180910390a35050565b8173ffffffffffffffffffffffffffffffffffffffff168373ffffffffffffffffffffffffffffffffffffffff16036118c9576040517f08c379a00000000000000000000000000000000000000000000000000000000081526004016118c090613ae0565b60405180910390fd5b80600560008573ffffffffffffffffffffffffffffffffffffffff1673ffffffffffffffffffffffffffffffffffffffff16815260200190815260200160002060008473ffffffffffffffffffffffffffffffffffffffff1673ffffffffffffffffffffffffffffffffffffffff16815260200190815260200160002060006101000a81548160ff0219169083151502179055508173ffffffffffffffffffffffffffffffffffffffff168373ffffffffffffffffffffffffffffffffffffffff167f17307eab39ab6107e8899845ad3d59bd9653f200f220920489ca2b5937696c31836040516119ba919061212a565b60405180910390a3505050565b606060008251036119e957604051806020016040528060008152509050611b25565b6000604051806060016040528060408152602001613dfc6040913990506000600360028551611a1891906139c5565b611a22919061392f565b6004611a2e9190613b00565b67ffffffffffffffff811115611a4757611a46612482565b5b6040519080825280601f01601f191660200182016040528015611a795781602001600182028036833780820191505090505b509050600182016020820185865187015b80821015611ae5576003820191508151603f8160121c168501518453600184019350603f81600c1c168501518453600184019350603f8160061c168501518453600184019350603f8116850151845360018401935050611a8a565b5050600386510660018114611b015760028114611b1457611b1c565b603d6001830353603d6002830353611b1c565b603d60018303535b50505080925050505b919050565b611b3584848461123f565b611b4184848484611ca9565b611b80576040517f08c379a0000000000000000000000000000000000000000000000000000000008152600401611b7790613bb4565b60405180910390fd5b50505050565b60008073ffffffffffffffffffffffffffffffffffffffff16611ba883611698565b73ffffffffffffffffffffffffffffffffffffffff1614159050919050565b600073ffffffffffffffffffffffffffffffffffffffff168473ffffffffffffffffffffffffffffffffffffffff1614611c36576040517f08c379a0000000000000000000000000000000000000000000000000000000008152600401611c2d90613c20565b60405180910390fd5b611c4284848484611e30565b50505050565b50505050565b611c588383611e36565b611c656000848484611ca9565b611ca4576040517f08c379a0000000000000000000000000000000000000000000000000000000008152600401611c9b90613bb4565b60405180910390fd5b505050565b6000611cca8473ffffffffffffffffffffffffffffffffffffffff16612053565b15611e23578373ffffffffffffffffffffffffffffffffffffffff1663150b7a02611cf36110e9565b8786866040518563ffffffff1660e01b8152600401611d159493929190613c95565b6020604051808303816000875af1925050508015611d5157506040513d601f19601f82011682018060405250810190611d4e9190613cf6565b60015b611dd3573d8060008114611d81576040519150601f19603f3d011682016040523d82523d6000602084013e611d86565b606091505b506000815103611dcb576040517f08c379a0000000000000000000000000000000000000000000000000000000008152600401611dc290613bb4565b60405180910390fd5b805181602001fd5b63150b7a0260e01b7bffffffffffffffffffffffffffffffffffffffffffffffffffffffff1916817bffffffffffffffffffffffffffffffffffffffffffffffffffffffff191614915050611e28565b600190505b949350505050565b50505050565b600073ffffffffffffffffffffffffffffffffffffffff168273ffffffffffffffffffffffffffffffffffffffff1603611ea5576040517f08c379a0000000000000000000000000000000000000000000000000000000008152600401611e9c90613d6f565b60405180910390fd5b611eae81611b86565b15611eee576040517f08c379a0000000000000000000000000000000000000000000000000000000008152600401611ee590613ddb565b60405180910390fd5b611efc600083836001611bc7565b611f0581611b86565b15611f45576040517f08c379a0000000000000000000000000000000000000000000000000000000008152600401611f3c90613ddb565b60405180910390fd5b6001600360008473ffffffffffffffffffffffffffffffffffffffff1673ffffffffffffffffffffffffffffffffffffffff16815260200190815260200160002060008282540192505081905550816002600083815260200190815260200160002060006101000a81548173ffffffffffffffffffffffffffffffffffffffff021916908373ffffffffffffffffffffffffffffffffffffffff160217905550808273ffffffffffffffffffffffffffffffffffffffff16600073ffffffffffffffffffffffffffffffffffffffff167fddf252ad1be2c89b69c2b068fc378daa952ba7f163c4a11628f55a4df523b3ef60405160405180910390a461204f600083836001611c48565b5050565b6000808273ffffffffffffffffffffffffffffffffffffffff163b119050919050565b6000604051905090565b600080fd5b600080fd5b60007fffffffff0000000000000000000000000000000000000000000000000000000082169050919050565b6120bf8161208a565b81146120ca57600080fd5b50565b6000813590506120dc816120b6565b92915050565b6000602082840312156120f8576120f7612080565b5b6000612106848285016120cd565b91505092915050565b60008115159050919050565b6121248161210f565b82525050565b600060208201905061213f600083018461211b565b92915050565b600081519050919050565b600082825260208201905092915050565b60005b8381101561217f578082015181840152602081019050612164565b60008484015250505050565b6000601f19601f8301169050919050565b60006121a782612145565b6121b18185612150565b93506121c1818560208601612161565b6121ca8161218b565b840191505092915050565b600060208201905081810360008301526121ef818461219c565b905092915050565b6000819050919050565b61220a816121f7565b811461221557600080fd5b50565b60008135905061222781612201565b92915050565b60006020828403121561224357612242612080565b5b600061225184828501612218565b91505092915050565b600073ffffffffffffffffffffffffffffffffffffffff82169050919050565b60006122858261225a565b9050919050565b6122958161227a565b82525050565b60006020820190506122b0600083018461228c565b92915050565b6122bf8161227a565b81146122ca57600080fd5b50565b6000813590506122dc816122b6565b92915050565b600080604083850312156122f9576122f8612080565b5b6000612307858286016122cd565b925050602061231885828601612218565b9150509250929050565b60006020828403121561233857612337612080565b5b6000612346848285016122cd565b91505092915050565b60008060006060848603121561236857612367612080565b5b6000612376868287016122cd565b9350506020612387868287016122cd565b925050604061239886828701612218565b9150509250925092565b600080604083850312156123b9576123b8612080565b5b60006123c785828601612218565b92505060206123d885828601612218565b9150509250929050565b6123eb816121f7565b82525050565b600060208201905061240660008301846123e2565b92915050565b6124158161210f565b811461242057600080fd5b50565b6000813590506124328161240c565b92915050565b6000806040838503121561244f5761244e612080565b5b600061245d858286016122cd565b925050602061246e85828601612423565b9150509250929050565b600080fd5b600080fd5b7f4e487b7100000000000000000000000000000000000000000000000000000000600052604160045260246000fd5b6124ba8261218b565b810181811067ffffffffffffffff821117156124d9576124d8612482565b5b80604052505050565b60006124ec612076565b90506124f882826124b1565b919050565b600067ffffffffffffffff82111561251857612517612482565b5b6125218261218b565b9050602081019050919050565b82818337600083830152505050565b600061255061254b846124fd565b6124e2565b90508281526020810184848401111561256c5761256b61247d565b5b61257784828561252e565b509392505050565b600082601f83011261259457612593612478565b5b81356125a484826020860161253d565b91505092915050565b600080600080608085870312156125c7576125c6612080565b5b60006125d5878288016122cd565b94505060206125e6878288016122cd565b93505060406125f787828801612218565b925050606085013567ffffffffffffffff81111561261857612617612085565b5b6126248782880161257f565b91505092959194509250565b6000806040838503121561264757612646612080565b5b6000612655858286016122cd565b9250506020612666858286016122cd565b9150509250929050565b7f4e487b7100000000000000000000000000000000000000000000000000000000600052602260045260246000fd5b600060028204905060018216806126b757607f821691505b6020821081036126ca576126c9612670565b5b50919050565b7f4552433732313a20617070726f76616c20746f2063757272656e74206f776e6560008201527f7200000000000000000000000000000000000000000000000000000000000000602082015250565b600061272c602183612150565b9150612737826126d0565b604082019050919050565b6000602082019050818103600083015261275b8161271f565b9050919050565b7f4552433732313a20617070726f76652063616c6c6572206973206e6f7420746f60008201527f6b656e206f776e6572206f7220617070726f76656420666f7220616c6c000000602082015250565b60006127be603d83612150565b91506127c982612762565b604082019050919050565b600060208201905081810360008301526127ed816127b1565b9050919050565b7f4552433732313a2063616c6c6572206973206e6f7420746f6b656e206f776e6560008201527f72206f7220617070726f76656400000000000000000000000000000000000000602082015250565b6000612850602d83612150565b915061285b826127f4565b604082019050919050565b6000602082019050818103600083015261287f81612843565b9050919050565b7f506c65617365206d696e7420612067616d6520736f756c206e6674206174206660008201527f6972737400000000000000000000000000000000000000000000000000000000602082015250565b60006128e2602483612150565b91506128ed82612886565b604082019050919050565b60006020820190508181036000830152612911816128d5565b9050919050565b7f4f776e6572206e6f74206d617463680000000000000000000000000000000000600082015250565b600061294e600f83612150565b915061295982612918565b602082019050919050565b6000602082019050818103600083015261297d81612941565b9050919050565b600081905092915050565b7f3c73766720636c6173733d22737667426f6479222077696474683d223230302260008201527f206865696768743d22323030222076696577426f783d2230203020323030203260208201527f30302220786d6c6e733d22687474703a2f2f7777772e77332e6f72672f32303060408201527f302f737667223e00000000000000000000000000000000000000000000000000606082015250565b6000612a37606783612984565b9150612a428261298f565b606782019050919050565b7f203c212d2d204261636b67726f756e642052656374616e676c65202d2d3e0000600082015250565b6000612a83601e83612984565b9150612a8e82612a4d565b601e82019050919050565b7f203c7265637420783d22302220793d2230222077696474683d2232303022206860008201527f65696768743d22323030222066696c6c3d222345434543454322202f3e000000602082015250565b6000612af5603d83612984565b9150612b0082612a99565b603d82019050919050565b7f203c212d2d2048656164205368617065202d2d3e000000000000000000000000600082015250565b6000612b41601483612984565b9150612b4c82612b0b565b601482019050919050565b7f203c636972636c652063783d22313030222063793d2237302220723d2235302260008201527f2066696c6c3d222346454422202f3e0000000000000000000000000000000000602082015250565b6000612bb3602f83612984565b9150612bbe82612b57565b602f82019050919050565b7f203c7061746820643d224d20363020383020512038302031313020313030203160008201527f3230205120313230203131302031343020383022207374726f6b653d2223464560208201527f44222066696c6c3d226e6f6e6522202f3e000000000000000000000000000000604082015250565b6000612c4b605183612984565b9150612c5682612bc9565b605182019050919050565b7f203c212d2d2045796573202d2d3e000000000000000000000000000000000000600082015250565b6000612c97600e83612984565b9150612ca282612c61565b600e82019050919050565b7f203c636972636c652063783d223830222063793d2236352220723d223522206660008201527f696c6c3d222343373030333922202f3e00000000000000000000000000000000602082015250565b6000612d09603083612984565b9150612d1482612cad565b603082019050919050565b7f203c636972636c652063783d22313230222063793d2236352220723d2235222060008201527f66696c6c3d222343373030333922202f3e000000000000000000000000000000602082015250565b6000612d7b603183612984565b9150612d8682612d1f565b603182019050919050565b7f203c212d2d204d6f757468202d2d3e0000000000000000000000000000000000600082015250565b6000612dc7600f83612984565b9150612dd282612d91565b600f82019050919050565b7f203c7061746820643d224d20373020313030205120313030203131302031333060008201527f2031303022207374726f6b653d2223433730303339222066696c6c3d226e6f6e60208201527f6522202f3e000000000000000000000000000000000000000000000000000000604082015250565b6000612e5f604583612984565b9150612e6a82612ddd565b604582019050919050565b7f203c212d2d205368697274202d2d3e0000000000000000000000000000000000600082015250565b6000612eab600f83612984565b9150612eb682612e75565b600f82019050919050565b7f203c7061746820643d224d20313030203134352051203730203133352031333060008201527f2031333520512031303020313435203130302031343522207374726f6b653d2260208201527f23424144413535222066696c6c3d222342414441353522202f3e000000000000604082015250565b6000612f43605a83612984565b9150612f4e82612ec1565b605a82019050919050565b7f203c212d2d2054657874202d2d3e000000000000000000000000000000000000600082015250565b6000612f8f600e83612984565b9150612f9a82612f59565b600e82019050919050565b7f203c7465787420783d223130302220793d223138352220746578742d616e636860008201527f6f723d226d6964646c652220666f6e742d73697a653d2231322220666f6e742d60208201527f66616d696c793d22417269616c222066696c6c3d22626c61636b223e20416c6c60408201527f47616d6553636f72653a20000000000000000000000000000000000000000000606082015250565b600061304d606b83612984565b915061305882612fa5565b606b82019050919050565b600061306e82612145565b6130788185612984565b9350613088818560208601612161565b80840191505092915050565b7f3c2f746578743e00000000000000000000000000000000000000000000000000600082015250565b60006130ca600783612984565b91506130d582613094565b600782019050919050565b7f3c2f7376673e0000000000000000000000000000000000000000000000000000600082015250565b6000613116600683612984565b9150613121826130e0565b600682019050919050565b600061313782612a2a565b915061314282612a76565b915061314d82612ae8565b915061315882612b34565b915061316382612ba6565b915061316e82612c3e565b915061317982612c8a565b915061318482612cfc565b915061318f82612d6e565b915061319a82612dba565b91506131a582612e52565b91506131b082612e9e565b91506131bb82612f36565b91506131c682612f82565b91506131d182613040565b91506131dd8284613063565b91506131e8826130bd565b91506131f382613109565b915081905092915050565b7f4552433732313a20696e76616c696420746f6b656e2049440000000000000000600082015250565b6000613234601883612150565b915061323f826131fe565b602082019050919050565b6000602082019050818103600083015261326381613227565b9050919050565b7f43616e206f6e6c79206d696e74206f6e652067616d6520736f756c206e66742060008201527f7065722077616c6c65742e000000000000000000000000000000000000000000602082015250565b60006132c6602b83612150565b91506132d18261326a565b604082019050919050565b600060208201905081810360008301526132f5816132b9565b9050919050565b7f4552433732313a2061646472657373207a65726f206973206e6f74206120766160008201527f6c6964206f776e65720000000000000000000000000000000000000000000000602082015250565b6000613358602983612150565b9150613363826132fc565b604082019050919050565b600060208201905081810360008301526133878161334b565b9050919050565b7f4552433732314d657461646174613a2055524920717565727920666f72206e6f60008201527f6e6578697374656e7420746f6b656e0000000000000000000000000000000000602082015250565b60006133ea602f83612150565b91506133f58261338e565b604082019050919050565b60006020820190508181036000830152613419816133dd565b9050919050565b7f4c61726f6e610000000000000000000000000000000000000000000000000000600082015250565b6000613456600683612984565b915061346182613420565b600682019050919050565b600061347782613449565b9150819050919050565b7f7b226e616d65223a220000000000000000000000000000000000000000000000600082015250565b60006134b7600983612984565b91506134c282613481565b600982019050919050565b7f222c20226465736372697074696f6e223a220000000000000000000000000000600082015250565b6000613503601283612984565b915061350e826134cd565b601282019050919050565b7f222c2022696d6167655f64617461223a20220000000000000000000000000000600082015250565b600061354f601283612984565b915061355a82613519565b601282019050919050565b7f646174613a696d6167652f7376672b786d6c3b6261736536342c000000000000600082015250565b600061359b601a83612984565b91506135a682613565565b601a82019050919050565b7f227d000000000000000000000000000000000000000000000000000000000000600082015250565b60006135e7600283612984565b91506135f2826135b1565b600282019050919050565b6000613608826134aa565b91506136148286613063565b915061361f826134f6565b915061362b8285613063565b915061363682613542565b91506136418261358e565b915061364d8284613063565b9150613658826135da565b9150819050949350505050565b7f646174613a6170706c69636174696f6e2f6a736f6e3b6261736536342c000000600082015250565b600061369b601d83612984565b91506136a682613665565b601d82019050919050565b60006136bc8261368e565b91506136c88284613063565b915081905092915050565b7f4f776e61626c653a206e6577206f776e657220697320746865207a65726f206160008201527f6464726573730000000000000000000000000000000000000000000000000000602082015250565b600061372f602683612150565b915061373a826136d3565b604082019050919050565b6000602082019050818103600083015261375e81613722565b9050919050565b7f4552433732313a207472616e736665722066726f6d20696e636f72726563742060008201527f6f776e6572000000000000000000000000000000000000000000000000000000602082015250565b60006137c1602583612150565b91506137cc82613765565b604082019050919050565b600060208201905081810360008301526137f0816137b4565b9050919050565b7f4552433732313a207472616e7366657220746f20746865207a65726f2061646460008201527f7265737300000000000000000000000000000000000000000000000000000000602082015250565b6000613853602483612150565b915061385e826137f7565b604082019050919050565b6000602082019050818103600083015261388281613846565b9050919050565b7f4e487b7100000000000000000000000000000000000000000000000000000000600052601160045260246000fd5b60006138c3826121f7565b91507fffffffffffffffffffffffffffffffffffffffffffffffffffffffffffffffff82036138f5576138f4613889565b5b600182019050919050565b7f4e487b7100000000000000000000000000000000000000000000000000000000600052601260045260246000fd5b600061393a826121f7565b9150613945836121f7565b92508261395557613954613900565b5b828204905092915050565b600061396b826121f7565b9150613976836121f7565b925082820390508181111561398e5761398d613889565b5b92915050565b600061399f826121f7565b91506139aa836121f7565b9250826139ba576139b9613900565b5b828206905092915050565b60006139d0826121f7565b91506139db836121f7565b92508282019050808211156139f3576139f2613889565b5b92915050565b7f4e487b7100000000000000000000000000000000000000000000000000000000600052603260045260246000fd5b7f4f776e61626c653a2063616c6c6572206973206e6f7420746865206f776e6572600082015250565b6000613a5e602083612150565b9150613a6982613a28565b602082019050919050565b60006020820190508181036000830152613a8d81613a51565b9050919050565b7f4552433732313a20617070726f766520746f2063616c6c657200000000000000600082015250565b6000613aca601983612150565b9150613ad582613a94565b602082019050919050565b60006020820190508181036000830152613af981613abd565b9050919050565b6000613b0b826121f7565b9150613b16836121f7565b9250828202613b24816121f7565b91508282048414831517613b3b57613b3a613889565b5b5092915050565b7f4552433732313a207472616e7366657220746f206e6f6e20455243373231526560008201527f63656976657220696d706c656d656e7465720000000000000000000000000000602082015250565b6000613b9e603283612150565b9150613ba982613b42565b604082019050919050565b60006020820190508181036000830152613bcd81613b91565b9050919050565b7f546f6b656e206e6f74207472616e7366657261626c6500000000000000000000600082015250565b6000613c0a601683612150565b9150613c1582613bd4565b602082019050919050565b60006020820190508181036000830152613c3981613bfd565b9050919050565b600081519050919050565b600082825260208201905092915050565b6000613c6782613c40565b613c718185613c4b565b9350613c81818560208601612161565b613c8a8161218b565b840191505092915050565b6000608082019050613caa600083018761228c565b613cb7602083018661228c565b613cc460408301856123e2565b8181036060830152613cd68184613c5c565b905095945050505050565b600081519050613cf0816120b6565b92915050565b600060208284031215613d0c57613d0b612080565b5b6000613d1a84828501613ce1565b91505092915050565b7f4552433732313a206d696e7420746f20746865207a65726f2061646472657373600082015250565b6000613d59602083612150565b9150613d6482613d23565b602082019050919050565b60006020820190508181036000830152613d8881613d4c565b9050919050565b7f4552433732313a20746f6b656e20616c7265616479206d696e74656400000000600082015250565b6000613dc5601c83612150565b9150613dd082613d8f565b602082019050919050565b60006020820190508181036000830152613df481613db8565b905091905056fe4142434445464748494a4b4c4d4e4f505152535455565758595a6162636465666768696a6b6c6d6e6f707172737475767778797a303132333435363738392b2fa26469706673582212202b28ab2c03a0daae57e598816c8ed063cc1ceda403925780dfb81d66f267531564736f6c63430008120033",
  "linkReferences": {},
  "deployedLinkReferences": {}
}