{
  "_format": "hh-sol-artifact-1",
  "contractName": "GameSoulbound",
  "sourceName": "contracts/nft.sol",
  "abi": [
    {
      "inputs": [],
      "stateMutability": "nonpayable",
      "type": "constructor"
    },
    {
      "anonymous": false,
      "inputs": [
        {
          "indexed": true,
          "internalType": "address",
          "name": "owner",
          "type": "address"
        },
        {
          "indexed": true,
          "internalType": "address",
          "name": "approved",
          "type": "address"
        },
        {
          "indexed": true,
          "internalType": "uint256",
          "name": "tokenId",
          "type": "uint256"
        }
      ],
      "name": "Approval",
      "type": "event"
    },
    {
      "anonymous": false,
      "inputs": [
        {
          "indexed": true,
          "internalType": "address",
          "name": "owner",
          "type": "address"
        },
        {
          "indexed": true,
          "internalType": "address",
          "name": "operator",
          "type": "address"
        },
        {
          "indexed": false,
          "internalType": "bool",
          "name": "approved",
          "type": "bool"
        }
      ],
      "name": "ApprovalForAll",
      "type": "event"
    },
    {
      "anonymous": false,
      "inputs": [
        {
          "indexed": true,
          "internalType": "address",
          "name": "previousOwner",
          "type": "address"
        },
        {
          "indexed": true,
          "internalType": "address",
          "name": "newOwner",
          "type": "address"
        }
      ],
      "name": "OwnershipTransferred",
      "type": "event"
    },
    {
      "anonymous": false,
      "inputs": [
        {
          "indexed": true,
          "internalType": "address",
          "name": "from",
          "type": "address"
        },
        {
          "indexed": true,
          "internalType": "address",
          "name": "to",
          "type": "address"
        },
        {
          "indexed": true,
          "internalType": "uint256",
          "name": "tokenId",
          "type": "uint256"
        }
      ],
      "name": "Transfer",
      "type": "event"
    },
    {
      "inputs": [],
      "name": "TraitAddr",
      "outputs": [
        {
          "internalType": "address",
          "name": "",
          "type": "address"
        }
      ],
      "stateMutability": "view",
      "type": "function"
    },
    {
      "inputs": [
        {
          "internalType": "address",
          "name": "to",
          "type": "address"
        },
        {
          "internalType": "uint256",
          "name": "tokenId",
          "type": "uint256"
        }
      ],
      "name": "approve",
      "outputs": [],
      "stateMutability": "nonpayable",
      "type": "function"
    },
    {
      "inputs": [
        {
          "internalType": "address",
          "name": "owner",
          "type": "address"
        }
      ],
      "name": "balanceOf",
      "outputs": [
        {
          "internalType": "uint256",
          "name": "",
          "type": "uint256"
        }
      ],
      "stateMutability": "view",
      "type": "function"
    },
    {
      "inputs": [
        {
          "internalType": "uint256",
          "name": "tokenId",
          "type": "uint256"
        }
      ],
      "name": "generateBase64Image",
      "outputs": [
        {
          "internalType": "string",
          "name": "",
          "type": "string"
        }
      ],
      "stateMutability": "view",
      "type": "function"
    },
    {
      "inputs": [
        {
          "internalType": "uint8",
          "name": "part0_type",
          "type": "uint8"
        },
        {
          "internalType": "uint8",
          "name": "part1_type",
          "type": "uint8"
        },
        {
          "internalType": "uint8",
          "name": "part2_type",
          "type": "uint8"
        },
        {
          "internalType": "uint8",
          "name": "part3_type",
          "type": "uint8"
        }
      ],
      "name": "generateImage",
      "outputs": [
        {
          "internalType": "string",
          "name": "",
          "type": "string"
        }
      ],
      "stateMutability": "view",
      "type": "function"
    },
    {
      "inputs": [
        {
          "internalType": "uint256",
          "name": "tokenId",
          "type": "uint256"
        }
      ],
      "name": "getApproved",
      "outputs": [
        {
          "internalType": "address",
          "name": "",
          "type": "address"
        }
      ],
      "stateMutability": "view",
      "type": "function"
    },
    {
      "inputs": [
        {
          "internalType": "address",
          "name": "owner",
          "type": "address"
        },
        {
          "internalType": "address",
          "name": "operator",
          "type": "address"
        }
      ],
      "name": "isApprovedForAll",
      "outputs": [
        {
          "internalType": "bool",
          "name": "",
          "type": "bool"
        }
      ],
      "stateMutability": "view",
      "type": "function"
    },
    {
      "inputs": [
        {
          "internalType": "address",
          "name": "",
          "type": "address"
        }
      ],
      "name": "minted",
      "outputs": [
        {
          "internalType": "bool",
          "name": "",
          "type": "bool"
        }
      ],
      "stateMutability": "view",
      "type": "function"
    },
    {
      "inputs": [],
      "name": "name",
      "outputs": [
        {
          "internalType": "string",
          "name": "",
          "type": "string"
        }
      ],
      "stateMutability": "view",
      "type": "function"
    },
    {
      "inputs": [],
      "name": "owner",
      "outputs": [
        {
          "internalType": "address",
          "name": "",
          "type": "address"
        }
      ],
      "stateMutability": "view",
      "type": "function"
    },
    {
      "inputs": [
        {
          "internalType": "uint256",
          "name": "tokenId",
          "type": "uint256"
        }
      ],
      "name": "ownerOf",
      "outputs": [
        {
          "internalType": "address",
          "name": "",
          "type": "address"
        }
      ],
      "stateMutability": "view",
      "type": "function"
    },
    {
      "inputs": [
        {
          "internalType": "address",
          "name": "",
          "type": "address"
        }
      ],
      "name": "players",
      "outputs": [
        {
          "internalType": "uint256",
          "name": "tokenId",
          "type": "uint256"
        }
      ],
      "stateMutability": "view",
      "type": "function"
    },
    {
      "inputs": [],
      "name": "renounceOwnership",
      "outputs": [],
      "stateMutability": "nonpayable",
      "type": "function"
    },
    {
      "inputs": [],
      "name": "safeMint",
      "outputs": [],
      "stateMutability": "nonpayable",
      "type": "function"
    },
    {
      "inputs": [
        {
          "internalType": "address",
          "name": "from",
          "type": "address"
        },
        {
          "internalType": "address",
          "name": "to",
          "type": "address"
        },
        {
          "internalType": "uint256",
          "name": "tokenId",
          "type": "uint256"
        }
      ],
      "name": "safeTransferFrom",
      "outputs": [],
      "stateMutability": "nonpayable",
      "type": "function"
    },
    {
      "inputs": [
        {
          "internalType": "address",
          "name": "from",
          "type": "address"
        },
        {
          "internalType": "address",
          "name": "to",
          "type": "address"
        },
        {
          "internalType": "uint256",
          "name": "tokenId",
          "type": "uint256"
        },
        {
          "internalType": "bytes",
          "name": "data",
          "type": "bytes"
        }
      ],
      "name": "safeTransferFrom",
      "outputs": [],
      "stateMutability": "nonpayable",
      "type": "function"
    },
    {
      "inputs": [
        {
          "internalType": "address",
          "name": "operator",
          "type": "address"
        },
        {
          "internalType": "bool",
          "name": "approved",
          "type": "bool"
        }
      ],
      "name": "setApprovalForAll",
      "outputs": [],
      "stateMutability": "nonpayable",
      "type": "function"
    },
    {
      "inputs": [
        {
          "internalType": "address",
          "name": "_addr",
          "type": "address"
        }
      ],
      "name": "setTraitAddr",
      "outputs": [],
      "stateMutability": "nonpayable",
      "type": "function"
    },
    {
      "inputs": [
        {
          "internalType": "bytes4",
          "name": "interfaceId",
          "type": "bytes4"
        }
      ],
      "name": "supportsInterface",
      "outputs": [
        {
          "internalType": "bool",
          "name": "",
          "type": "bool"
        }
      ],
      "stateMutability": "view",
      "type": "function"
    },
    {
      "inputs": [],
      "name": "symbol",
      "outputs": [
        {
          "internalType": "string",
          "name": "",
          "type": "string"
        }
      ],
      "stateMutability": "view",
      "type": "function"
    },
    {
      "inputs": [
        {
          "internalType": "uint256",
          "name": "tokenId",
          "type": "uint256"
        }
      ],
      "name": "tokenURI",
      "outputs": [
        {
          "internalType": "string",
          "name": "",
          "type": "string"
        }
      ],
      "stateMutability": "view",
      "type": "function"
    },
    {
      "inputs": [
        {
          "internalType": "uint256",
          "name": "",
          "type": "uint256"
        }
      ],
      "name": "traitInfos",
      "outputs": [
        {
          "internalType": "uint8",
          "name": "backType",
          "type": "uint8"
        },
        {
          "internalType": "uint8",
          "name": "headType",
          "type": "uint8"
        },
        {
          "internalType": "uint8",
          "name": "outfitType",
          "type": "uint8"
        },
        {
          "internalType": "uint8",
          "name": "eyeType",
          "type": "uint8"
        }
      ],
      "stateMutability": "view",
      "type": "function"
    },
    {
      "inputs": [
        {
          "internalType": "address",
          "name": "from",
          "type": "address"
        },
        {
          "internalType": "address",
          "name": "to",
          "type": "address"
        },
        {
          "internalType": "uint256",
          "name": "tokenId",
          "type": "uint256"
        }
      ],
      "name": "transferFrom",
      "outputs": [],
      "stateMutability": "nonpayable",
      "type": "function"
    },
    {
      "inputs": [
        {
          "internalType": "address",
          "name": "newOwner",
          "type": "address"
        }
      ],
      "name": "transferOwnership",
      "outputs": [],
      "stateMutability": "nonpayable",
      "type": "function"
    },
    {
      "inputs": [
        {
          "internalType": "uint256",
          "name": "gameid",
          "type": "uint256"
        },
        {
          "internalType": "uint256",
          "name": "score",
          "type": "uint256"
        }
      ],
      "name": "verify",
      "outputs": [],
      "stateMutability": "nonpayable",
      "type": "function"
    }
  ],
  "bytecode": "0x60806040523480156200001157600080fd5b506040518060400160405280600d81526020017f47616d65536f756c426f756e64000000000000000000000000000000000000008152506040518060400160405280600581526020017f472d53425400000000000000000000000000000000000000000000000000000081525081600090816200008f919062000412565b508060019081620000a1919062000412565b505050620000c4620000b8620000ca60201b60201c565b620000d260201b60201c565b620004f9565b600033905090565b6000600760009054906101000a900473ffffffffffffffffffffffffffffffffffffffff16905081600760006101000a81548173ffffffffffffffffffffffffffffffffffffffff021916908373ffffffffffffffffffffffffffffffffffffffff1602179055508173ffffffffffffffffffffffffffffffffffffffff168173ffffffffffffffffffffffffffffffffffffffff167f8be0079c531659141344cd1fd0a4f28419497f9722a3daafe3b4186f6b6457e060405160405180910390a35050565b600081519050919050565b7f4e487b7100000000000000000000000000000000000000000000000000000000600052604160045260246000fd5b7f4e487b7100000000000000000000000000000000000000000000000000000000600052602260045260246000fd5b600060028204905060018216806200021a57607f821691505b60208210810362000230576200022f620001d2565b5b50919050565b60008190508160005260206000209050919050565b60006020601f8301049050919050565b600082821b905092915050565b6000600883026200029a7fffffffffffffffffffffffffffffffffffffffffffffffffffffffffffffffff826200025b565b620002a686836200025b565b95508019841693508086168417925050509392505050565b6000819050919050565b6000819050919050565b6000620002f3620002ed620002e784620002be565b620002c8565b620002be565b9050919050565b6000819050919050565b6200030f83620002d2565b620003276200031e82620002fa565b84845462000268565b825550505050565b600090565b6200033e6200032f565b6200034b81848462000304565b505050565b5b8181101562000373576200036760008262000334565b60018101905062000351565b5050565b601f821115620003c2576200038c8162000236565b62000397846200024b565b81016020851015620003a7578190505b620003bf620003b6856200024b565b83018262000350565b50505b505050565b600082821c905092915050565b6000620003e760001984600802620003c7565b1980831691505092915050565b6000620004028383620003d4565b9150826002028217905092915050565b6200041d8262000198565b67ffffffffffffffff811115620004395762000438620001a3565b5b62000445825462000201565b6200045282828562000377565b600060209050601f8311600181146200048a576000841562000475578287015190505b620004818582620003f4565b865550620004f1565b601f1984166200049a8662000236565b60005b82811015620004c4578489015182556001820191506020850194506020810190506200049d565b86831015620004e45784890151620004e0601f891682620003d4565b8355505b6001600288020188555050505b505050505050565b6144d780620005096000396000f3fe608060405234801561001057600080fd5b50600436106101735760003560e01c8063715018a6116100de578063c14c9f0a11610097578063e2eb41ff11610071578063e2eb41ff1461045d578063e8ba2cd71461048d578063e985e9c5146104ab578063f2fde38b146104db57610173565b8063c14c9f0a146103de578063c5e3acdf14610411578063c87b56dd1461042d57610173565b8063715018a6146103305780638da5cb5b1461033a57806395d89b4114610358578063a22cb46514610376578063a48b3b8f14610392578063b88d4fde146103c257610173565b80633d7c302b116101305780633d7c302b1461025e57806341161b101461028e57806342842e0e146102aa5780636352211e146102c65780636871ee40146102f657806370a082311461030057610173565b806301ffc9a71461017857806306fdde03146101a8578063081812fc146101c6578063095ea7b3146101f65780631e7269c51461021257806323b872dd14610242575b600080fd5b610192600480360381019061018d91906126a7565b6104f7565b60405161019f91906126ef565b60405180910390f35b6101b06105d9565b6040516101bd919061279a565b60405180910390f35b6101e060048036038101906101db91906127f2565b61066b565b6040516101ed9190612860565b60405180910390f35b610210600480360381019061020b91906128a7565b6106b1565b005b61022c600480360381019061022791906128e7565b6107c8565b60405161023991906126ef565b60405180910390f35b61025c60048036038101906102579190612914565b6107e8565b005b610278600480360381019061027391906129a0565b610848565b604051610285919061279a565b60405180910390f35b6102a860048036038101906102a39190612a07565b610b66565b005b6102c460048036038101906102bf9190612914565b610d16565b005b6102e060048036038101906102db91906127f2565b610d36565b6040516102ed9190612860565b60405180910390f35b6102fe610dbc565b005b61031a600480360381019061031591906128e7565b61103e565b6040516103279190612a56565b60405180910390f35b6103386110f5565b005b610342611109565b60405161034f9190612860565b60405180910390f35b610360611133565b60405161036d919061279a565b60405180910390f35b610390600480360381019061038b9190612a9d565b6111c5565b005b6103ac60048036038101906103a791906127f2565b6111db565b6040516103b9919061279a565b60405180910390f35b6103dc60048036038101906103d79190612c12565b611284565b005b6103f860048036038101906103f391906127f2565b6112e6565b6040516104089493929190612ca4565b60405180910390f35b61042b600480360381019061042691906128e7565b61134a565b005b610447600480360381019061044291906127f2565b611396565b604051610454919061279a565b60405180910390f35b610477600480360381019061047291906128e7565b61149e565b6040516104849190612a56565b60405180910390f35b6104956114bc565b6040516104a29190612860565b60405180910390f35b6104c560048036038101906104c09190612ce9565b6114e2565b6040516104d291906126ef565b60405180910390f35b6104f560048036038101906104f091906128e7565b611576565b005b60007f80ac58cd000000000000000000000000000000000000000000000000000000007bffffffffffffffffffffffffffffffffffffffffffffffffffffffff1916827bffffffffffffffffffffffffffffffffffffffffffffffffffffffff191614806105c257507f5b5e139f000000000000000000000000000000000000000000000000000000007bffffffffffffffffffffffffffffffffffffffffffffffffffffffff1916827bffffffffffffffffffffffffffffffffffffffffffffffffffffffff1916145b806105d257506105d1826115f9565b5b9050919050565b6060600080546105e890612d58565b80601f016020809104026020016040519081016040528092919081815260200182805461061490612d58565b80156106615780601f1061063657610100808354040283529160200191610661565b820191906000526020600020905b81548152906001019060200180831161064457829003601f168201915b5050505050905090565b600061067682611663565b6004600083815260200190815260200160002060009054906101000a900473ffffffffffffffffffffffffffffffffffffffff169050919050565b60006106bc82610d36565b90508073ffffffffffffffffffffffffffffffffffffffff168373ffffffffffffffffffffffffffffffffffffffff160361072c576040517f08c379a000000000000000000000000000000000000000000000000000000000815260040161072390612dfb565b60405180910390fd5b8073ffffffffffffffffffffffffffffffffffffffff1661074b6116ae565b73ffffffffffffffffffffffffffffffffffffffff16148061077a5750610779816107746116ae565b6114e2565b5b6107b9576040517f08c379a00000000000000000000000000000000000000000000000000000000081526004016107b090612e8d565b60405180910390fd5b6107c383836116b6565b505050565b60096020528060005260406000206000915054906101000a900460ff1681565b6107f96107f36116ae565b8261176f565b610838576040517f08c379a000000000000000000000000000000000000000000000000000000000815260040161082f90612f1f565b60405180910390fd5b610843838383611804565b505050565b6060600b60009054906101000a900473ffffffffffffffffffffffffffffffffffffffff1673ffffffffffffffffffffffffffffffffffffffff16638ef2291a6000876040518363ffffffff1660e01b81526004016108a8929190612fb5565b600060405180830381865afa1580156108c5573d6000803e3d6000fd5b505050506040513d6000823e3d601f19601f820116820180604052508101906108ee919061307f565b600b60009054906101000a900473ffffffffffffffffffffffffffffffffffffffff1673ffffffffffffffffffffffffffffffffffffffff16638ef2291a6001876040518363ffffffff1660e01b815260040161094c929190613103565b600060405180830381865afa158015610969573d6000803e3d6000fd5b505050506040513d6000823e3d601f19601f82011682018060405250810190610992919061307f565b600b60009054906101000a900473ffffffffffffffffffffffffffffffffffffffff1673ffffffffffffffffffffffffffffffffffffffff16638ef2291a6002876040518363ffffffff1660e01b81526004016109f0929190613167565b600060405180830381865afa158015610a0d573d6000803e3d6000fd5b505050506040513d6000823e3d601f19601f82011682018060405250810190610a36919061307f565b600b60009054906101000a900473ffffffffffffffffffffffffffffffffffffffff1673ffffffffffffffffffffffffffffffffffffffff16638ef2291a6003876040518363ffffffff1660e01b8152600401610a949291906131cb565b600060405180830381865afa158015610ab1573d6000803e3d6000fd5b505050506040513d6000823e3d601f19601f82011682018060405250810190610ada919061307f565b610b39600a60003373ffffffffffffffffffffffffffffffffffffffff1673ffffffffffffffffffffffffffffffffffffffff168152602001908152602001600020600101600080815260200190815260200160002060000154611afd565b604051602001610b4d9594939291906135e6565b6040516020818303038152906040529050949350505050565b60011515600960003373ffffffffffffffffffffffffffffffffffffffff1673ffffffffffffffffffffffffffffffffffffffff16815260200190815260200160002060009054906101000a900460ff16151514610bf9576040517f08c379a0000000000000000000000000000000000000000000000000000000008152600401610bf090613732565b60405180910390fd5b6000600a60003373ffffffffffffffffffffffffffffffffffffffff1673ffffffffffffffffffffffffffffffffffffffff1681526020019081526020016000206000015490503373ffffffffffffffffffffffffffffffffffffffff16610c6082610d36565b73ffffffffffffffffffffffffffffffffffffffff1614610cb6576040517f08c379a0000000000000000000000000000000000000000000000000000000008152600401610cad9061379e565b60405180910390fd5b81600a60003373ffffffffffffffffffffffffffffffffffffffff1673ffffffffffffffffffffffffffffffffffffffff168152602001908152602001600020600101600085815260200190815260200160002060000181905550505050565b610d3183838360405180602001604052806000815250611284565b505050565b600080610d4283611c5d565b9050600073ffffffffffffffffffffffffffffffffffffffff168173ffffffffffffffffffffffffffffffffffffffff1603610db3576040517f08c379a0000000000000000000000000000000000000000000000000000000008152600401610daa9061380a565b60405180910390fd5b80915050919050565b60001515600960003373ffffffffffffffffffffffffffffffffffffffff1673ffffffffffffffffffffffffffffffffffffffff16815260200190815260200160002060009054906101000a900460ff16151514610e4f576040517f08c379a0000000000000000000000000000000000000000000000000000000008152600401610e469061389c565b60405180910390fd5b6001600960003373ffffffffffffffffffffffffffffffffffffffff1673ffffffffffffffffffffffffffffffffffffffff16815260200190815260200160002060006101000a81548160ff0219169083151502179055506000610eb36008611c9a565b9050610ebf6008611ca8565b80600a60003373ffffffffffffffffffffffffffffffffffffffff1673ffffffffffffffffffffffffffffffffffffffff168152602001908152602001600020600001819055506000423383604051602001610f1d93929190613925565b6040516020818303038152906040528051906020012060001c9050600781610f459190613991565b600c600084815260200190815260200160002060000160006101000a81548160ff021916908360ff1602179055506007600182901c610f849190613991565b600c600084815260200190815260200160002060000160016101000a81548160ff021916908360ff1602179055506007600282901c610fc39190613991565b600c600084815260200190815260200160002060000160026101000a81548160ff021916908360ff1602179055506007600382901c6110029190613991565b600c600084815260200190815260200160002060000160036101000a81548160ff021916908360ff16021790555061103a3383611cbe565b5050565b60008073ffffffffffffffffffffffffffffffffffffffff168273ffffffffffffffffffffffffffffffffffffffff16036110ae576040517f08c379a00000000000000000000000000000000000000000000000000000000081526004016110a590613a34565b60405180910390fd5b600360008373ffffffffffffffffffffffffffffffffffffffff1673ffffffffffffffffffffffffffffffffffffffff168152602001908152602001600020549050919050565b6110fd611cdc565b6111076000611d5a565b565b6000600760009054906101000a900473ffffffffffffffffffffffffffffffffffffffff16905090565b60606001805461114290612d58565b80601f016020809104026020016040519081016040528092919081815260200182805461116e90612d58565b80156111bb5780601f10611190576101008083540402835291602001916111bb565b820191906000526020600020905b81548152906001019060200180831161119e57829003601f168201915b5050505050905090565b6111d76111d06116ae565b8383611e20565b5050565b606061127d611278600c600085815260200190815260200160002060000160009054906101000a900460ff16600c600086815260200190815260200160002060000160019054906101000a900460ff16600c600087815260200190815260200160002060000160029054906101000a900460ff16600c600088815260200190815260200160002060000160039054906101000a900460ff16610848565b611f8c565b9050919050565b61129561128f6116ae565b8361176f565b6112d4576040517f08c379a00000000000000000000000000000000000000000000000000000000081526004016112cb90612f1f565b60405180910390fd5b6112e0848484846120ef565b50505050565b600c6020528060005260406000206000915090508060000160009054906101000a900460ff16908060000160019054906101000a900460ff16908060000160029054906101000a900460ff16908060000160039054906101000a900460ff16905084565b611352611cdc565b80600b60006101000a81548173ffffffffffffffffffffffffffffffffffffffff021916908373ffffffffffffffffffffffffffffffffffffffff16021790555050565b60606113a18261214b565b6113e0576040517f08c379a00000000000000000000000000000000000000000000000000000000081526004016113d790613ac6565b60405180910390fd5b60006040516020016113f190613b32565b604051602081830303815290604052905060006040518060400160405280601481526020017f47616d6520736f756c20626f6e6420746f6b656e00000000000000000000000081525090506000611447856111db565b905061147583838360405160200161146193929190613cc3565b604051602081830303815290604052611f8c565b6040516020016114859190613d77565b6040516020818303038152906040529350505050919050565b600a6020528060005260406000206000915090508060000154905081565b600b60009054906101000a900473ffffffffffffffffffffffffffffffffffffffff1681565b6000600560008473ffffffffffffffffffffffffffffffffffffffff1673ffffffffffffffffffffffffffffffffffffffff16815260200190815260200160002060008373ffffffffffffffffffffffffffffffffffffffff1673ffffffffffffffffffffffffffffffffffffffff16815260200190815260200160002060009054906101000a900460ff16905092915050565b61157e611cdc565b600073ffffffffffffffffffffffffffffffffffffffff168173ffffffffffffffffffffffffffffffffffffffff16036115ed576040517f08c379a00000000000000000000000000000000000000000000000000000000081526004016115e490613e0b565b60405180910390fd5b6115f681611d5a565b50565b60007f01ffc9a7000000000000000000000000000000000000000000000000000000007bffffffffffffffffffffffffffffffffffffffffffffffffffffffff1916827bffffffffffffffffffffffffffffffffffffffffffffffffffffffff1916149050919050565b61166c8161214b565b6116ab576040517f08c379a00000000000000000000000000000000000000000000000000000000081526004016116a29061380a565b60405180910390fd5b50565b600033905090565b816004600083815260200190815260200160002060006101000a81548173ffffffffffffffffffffffffffffffffffffffff021916908373ffffffffffffffffffffffffffffffffffffffff160217905550808273ffffffffffffffffffffffffffffffffffffffff1661172983610d36565b73ffffffffffffffffffffffffffffffffffffffff167f8c5be1e5ebec7d5bd14f71427d1e84f3dd0314c0f7b2291e5b200ac8c7c3b92560405160405180910390a45050565b60008061177b83610d36565b90508073ffffffffffffffffffffffffffffffffffffffff168473ffffffffffffffffffffffffffffffffffffffff1614806117bd57506117bc81856114e2565b5b806117fb57508373ffffffffffffffffffffffffffffffffffffffff166117e38461066b565b73ffffffffffffffffffffffffffffffffffffffff16145b91505092915050565b8273ffffffffffffffffffffffffffffffffffffffff1661182482610d36565b73ffffffffffffffffffffffffffffffffffffffff161461187a576040517f08c379a000000000000000000000000000000000000000000000000000000000815260040161187190613e9d565b60405180910390fd5b600073ffffffffffffffffffffffffffffffffffffffff168273ffffffffffffffffffffffffffffffffffffffff16036118e9576040517f08c379a00000000000000000000000000000000000000000000000000000000081526004016118e090613f2f565b60405180910390fd5b6118f6838383600161218c565b8273ffffffffffffffffffffffffffffffffffffffff1661191682610d36565b73ffffffffffffffffffffffffffffffffffffffff161461196c576040517f08c379a000000000000000000000000000000000000000000000000000000000815260040161196390613e9d565b60405180910390fd5b6004600082815260200190815260200160002060006101000a81549073ffffffffffffffffffffffffffffffffffffffff02191690556001600360008573ffffffffffffffffffffffffffffffffffffffff1673ffffffffffffffffffffffffffffffffffffffff168152602001908152602001600020600082825403925050819055506001600360008473ffffffffffffffffffffffffffffffffffffffff1673ffffffffffffffffffffffffffffffffffffffff16815260200190815260200160002060008282540192505081905550816002600083815260200190815260200160002060006101000a81548173ffffffffffffffffffffffffffffffffffffffff021916908373ffffffffffffffffffffffffffffffffffffffff160217905550808273ffffffffffffffffffffffffffffffffffffffff168473ffffffffffffffffffffffffffffffffffffffff167fddf252ad1be2c89b69c2b068fc378daa952ba7f163c4a11628f55a4df523b3ef60405160405180910390a4611af8838383600161220d565b505050565b606060008203611b44576040518060400160405280600181526020017f30000000000000000000000000000000000000000000000000000000000000008152509050611c58565b600082905060005b60008214611b76578080611b5f90613f7e565b915050600a82611b6f9190613fc6565b9150611b4c565b60008167ffffffffffffffff811115611b9257611b91612ae7565b5b6040519080825280601f01601f191660200182016040528015611bc45781602001600182028036833780820191505090505b5090505b60008514611c5157600182611bdd9190613ff7565b9150600a85611bec9190613991565b6030611bf8919061402b565b60f81b818381518110611c0e57611c0d61405f565b5b60200101907effffffffffffffffffffffffffffffffffffffffffffffffffffffffffffff1916908160001a905350600a85611c4a9190613fc6565b9450611bc8565b8093505050505b919050565b60006002600083815260200190815260200160002060009054906101000a900473ffffffffffffffffffffffffffffffffffffffff169050919050565b600081600001549050919050565b6001816000016000828254019250508190555050565b611cd8828260405180602001604052806000815250612213565b5050565b611ce46116ae565b73ffffffffffffffffffffffffffffffffffffffff16611d02611109565b73ffffffffffffffffffffffffffffffffffffffff1614611d58576040517f08c379a0000000000000000000000000000000000000000000000000000000008152600401611d4f906140da565b60405180910390fd5b565b6000600760009054906101000a900473ffffffffffffffffffffffffffffffffffffffff16905081600760006101000a81548173ffffffffffffffffffffffffffffffffffffffff021916908373ffffffffffffffffffffffffffffffffffffffff1602179055508173ffffffffffffffffffffffffffffffffffffffff168173ffffffffffffffffffffffffffffffffffffffff167f8be0079c531659141344cd1fd0a4f28419497f9722a3daafe3b4186f6b6457e060405160405180910390a35050565b8173ffffffffffffffffffffffffffffffffffffffff168373ffffffffffffffffffffffffffffffffffffffff1603611e8e576040517f08c379a0000000000000000000000000000000000000000000000000000000008152600401611e8590614146565b60405180910390fd5b80600560008573ffffffffffffffffffffffffffffffffffffffff1673ffffffffffffffffffffffffffffffffffffffff16815260200190815260200160002060008473ffffffffffffffffffffffffffffffffffffffff1673ffffffffffffffffffffffffffffffffffffffff16815260200190815260200160002060006101000a81548160ff0219169083151502179055508173ffffffffffffffffffffffffffffffffffffffff168373ffffffffffffffffffffffffffffffffffffffff167f17307eab39ab6107e8899845ad3d59bd9653f200f220920489ca2b5937696c3183604051611f7f91906126ef565b60405180910390a3505050565b60606000825103611fae576040518060200160405280600081525090506120ea565b60006040518060600160405280604081526020016144626040913990506000600360028551611fdd919061402b565b611fe79190613fc6565b6004611ff39190614166565b67ffffffffffffffff81111561200c5761200b612ae7565b5b6040519080825280601f01601f19166020018201604052801561203e5781602001600182028036833780820191505090505b509050600182016020820185865187015b808210156120aa576003820191508151603f8160121c168501518453600184019350603f81600c1c168501518453600184019350603f8160061c168501518453600184019350603f811685015184536001840193505061204f565b50506003865106600181146120c657600281146120d9576120e1565b603d6001830353603d60028303536120e1565b603d60018303535b50505080925050505b919050565b6120fa848484611804565b6121068484848461226e565b612145576040517f08c379a000000000000000000000000000000000000000000000000000000000815260040161213c9061421a565b60405180910390fd5b50505050565b60008073ffffffffffffffffffffffffffffffffffffffff1661216d83611c5d565b73ffffffffffffffffffffffffffffffffffffffff1614159050919050565b600073ffffffffffffffffffffffffffffffffffffffff168473ffffffffffffffffffffffffffffffffffffffff16146121fb576040517f08c379a00000000000000000000000000000000000000000000000000000000081526004016121f290614286565b60405180910390fd5b612207848484846123f5565b50505050565b50505050565b61221d83836123fb565b61222a600084848461226e565b612269576040517f08c379a00000000000000000000000000000000000000000000000000000000081526004016122609061421a565b60405180910390fd5b505050565b600061228f8473ffffffffffffffffffffffffffffffffffffffff16612618565b156123e8578373ffffffffffffffffffffffffffffffffffffffff1663150b7a026122b86116ae565b8786866040518563ffffffff1660e01b81526004016122da94939291906142fb565b6020604051808303816000875af192505050801561231657506040513d601f19601f82011682018060405250810190612313919061435c565b60015b612398573d8060008114612346576040519150601f19603f3d011682016040523d82523d6000602084013e61234b565b606091505b506000815103612390576040517f08c379a00000000000000000000000000000000000000000000000000000000081526004016123879061421a565b60405180910390fd5b805181602001fd5b63150b7a0260e01b7bffffffffffffffffffffffffffffffffffffffffffffffffffffffff1916817bffffffffffffffffffffffffffffffffffffffffffffffffffffffff1916149150506123ed565b600190505b949350505050565b50505050565b600073ffffffffffffffffffffffffffffffffffffffff168273ffffffffffffffffffffffffffffffffffffffff160361246a576040517f08c379a0000000000000000000000000000000000000000000000000000000008152600401612461906143d5565b60405180910390fd5b6124738161214b565b156124b3576040517f08c379a00000000000000000000000000000000000000000000000000000000081526004016124aa90614441565b60405180910390fd5b6124c160008383600161218c565b6124ca8161214b565b1561250a576040517f08c379a000000000000000000000000000000000000000000000000000000000815260040161250190614441565b60405180910390fd5b6001600360008473ffffffffffffffffffffffffffffffffffffffff1673ffffffffffffffffffffffffffffffffffffffff16815260200190815260200160002060008282540192505081905550816002600083815260200190815260200160002060006101000a81548173ffffffffffffffffffffffffffffffffffffffff021916908373ffffffffffffffffffffffffffffffffffffffff160217905550808273ffffffffffffffffffffffffffffffffffffffff16600073ffffffffffffffffffffffffffffffffffffffff167fddf252ad1be2c89b69c2b068fc378daa952ba7f163c4a11628f55a4df523b3ef60405160405180910390a461261460008383600161220d565b5050565b6000808273ffffffffffffffffffffffffffffffffffffffff163b119050919050565b6000604051905090565b600080fd5b600080fd5b60007fffffffff0000000000000000000000000000000000000000000000000000000082169050919050565b6126848161264f565b811461268f57600080fd5b50565b6000813590506126a18161267b565b92915050565b6000602082840312156126bd576126bc612645565b5b60006126cb84828501612692565b91505092915050565b60008115159050919050565b6126e9816126d4565b82525050565b600060208201905061270460008301846126e0565b92915050565b600081519050919050565b600082825260208201905092915050565b60005b83811015612744578082015181840152602081019050612729565b60008484015250505050565b6000601f19601f8301169050919050565b600061276c8261270a565b6127768185612715565b9350612786818560208601612726565b61278f81612750565b840191505092915050565b600060208201905081810360008301526127b48184612761565b905092915050565b6000819050919050565b6127cf816127bc565b81146127da57600080fd5b50565b6000813590506127ec816127c6565b92915050565b60006020828403121561280857612807612645565b5b6000612816848285016127dd565b91505092915050565b600073ffffffffffffffffffffffffffffffffffffffff82169050919050565b600061284a8261281f565b9050919050565b61285a8161283f565b82525050565b60006020820190506128756000830184612851565b92915050565b6128848161283f565b811461288f57600080fd5b50565b6000813590506128a18161287b565b92915050565b600080604083850312156128be576128bd612645565b5b60006128cc85828601612892565b92505060206128dd858286016127dd565b9150509250929050565b6000602082840312156128fd576128fc612645565b5b600061290b84828501612892565b91505092915050565b60008060006060848603121561292d5761292c612645565b5b600061293b86828701612892565b935050602061294c86828701612892565b925050604061295d868287016127dd565b9150509250925092565b600060ff82169050919050565b61297d81612967565b811461298857600080fd5b50565b60008135905061299a81612974565b92915050565b600080600080608085870312156129ba576129b9612645565b5b60006129c88782880161298b565b94505060206129d98782880161298b565b93505060406129ea8782880161298b565b92505060606129fb8782880161298b565b91505092959194509250565b60008060408385031215612a1e57612a1d612645565b5b6000612a2c858286016127dd565b9250506020612a3d858286016127dd565b9150509250929050565b612a50816127bc565b82525050565b6000602082019050612a6b6000830184612a47565b92915050565b612a7a816126d4565b8114612a8557600080fd5b50565b600081359050612a9781612a71565b92915050565b60008060408385031215612ab457612ab3612645565b5b6000612ac285828601612892565b9250506020612ad385828601612a88565b9150509250929050565b600080fd5b600080fd5b7f4e487b7100000000000000000000000000000000000000000000000000000000600052604160045260246000fd5b612b1f82612750565b810181811067ffffffffffffffff82111715612b3e57612b3d612ae7565b5b80604052505050565b6000612b5161263b565b9050612b5d8282612b16565b919050565b600067ffffffffffffffff821115612b7d57612b7c612ae7565b5b612b8682612750565b9050602081019050919050565b82818337600083830152505050565b6000612bb5612bb084612b62565b612b47565b905082815260208101848484011115612bd157612bd0612ae2565b5b612bdc848285612b93565b509392505050565b600082601f830112612bf957612bf8612add565b5b8135612c09848260208601612ba2565b91505092915050565b60008060008060808587031215612c2c57612c2b612645565b5b6000612c3a87828801612892565b9450506020612c4b87828801612892565b9350506040612c5c878288016127dd565b925050606085013567ffffffffffffffff811115612c7d57612c7c61264a565b5b612c8987828801612be4565b91505092959194509250565b612c9e81612967565b82525050565b6000608082019050612cb96000830187612c95565b612cc66020830186612c95565b612cd36040830185612c95565b612ce06060830184612c95565b95945050505050565b60008060408385031215612d0057612cff612645565b5b6000612d0e85828601612892565b9250506020612d1f85828601612892565b9150509250929050565b7f4e487b7100000000000000000000000000000000000000000000000000000000600052602260045260246000fd5b60006002820490506001821680612d7057607f821691505b602082108103612d8357612d82612d29565b5b50919050565b7f4552433732313a20617070726f76616c20746f2063757272656e74206f776e6560008201527f7200000000000000000000000000000000000000000000000000000000000000602082015250565b6000612de5602183612715565b9150612df082612d89565b604082019050919050565b60006020820190508181036000830152612e1481612dd8565b9050919050565b7f4552433732313a20617070726f76652063616c6c6572206973206e6f7420746f60008201527f6b656e206f776e6572206f7220617070726f76656420666f7220616c6c000000602082015250565b6000612e77603d83612715565b9150612e8282612e1b565b604082019050919050565b60006020820190508181036000830152612ea681612e6a565b9050919050565b7f4552433732313a2063616c6c6572206973206e6f7420746f6b656e206f776e6560008201527f72206f7220617070726f76656400000000000000000000000000000000000000602082015250565b6000612f09602d83612715565b9150612f1482612ead565b604082019050919050565b60006020820190508181036000830152612f3881612efc565b9050919050565b6000819050919050565b6000819050919050565b6000612f6e612f69612f6484612f3f565b612f49565b6127bc565b9050919050565b612f7e81612f53565b82525050565b6000612f9f612f9a612f9584612967565b612f49565b6127bc565b9050919050565b612faf81612f84565b82525050565b6000604082019050612fca6000830185612f75565b612fd76020830184612fa6565b9392505050565b600067ffffffffffffffff821115612ff957612ff8612ae7565b5b61300282612750565b9050602081019050919050565b600061302261301d84612fde565b612b47565b90508281526020810184848401111561303e5761303d612ae2565b5b613049848285612726565b509392505050565b600082601f83011261306657613065612add565b5b815161307684826020860161300f565b91505092915050565b60006020828403121561309557613094612645565b5b600082015167ffffffffffffffff8111156130b3576130b261264a565b5b6130bf84828501613051565b91505092915050565b6000819050919050565b60006130ed6130e86130e3846130c8565b612f49565b6127bc565b9050919050565b6130fd816130d2565b82525050565b600060408201905061311860008301856130f4565b6131256020830184612fa6565b9392505050565b6000819050919050565b600061315161314c6131478461312c565b612f49565b6127bc565b9050919050565b61316181613136565b82525050565b600060408201905061317c6000830185613158565b6131896020830184612fa6565b9392505050565b6000819050919050565b60006131b56131b06131ab84613190565b612f49565b6127bc565b9050919050565b6131c58161319a565b82525050565b60006040820190506131e060008301856131bc565b6131ed6020830184612fa6565b9392505050565b600081905092915050565b7f3c7376672076657273696f6e3d22312e31222069643d224c617965725f31222060008201527f786d6c6e733d22687474703a2f2f7777772e77332e6f72672f323030302f737660208201527f672220786d6c6e733a786c696e6b3d22687474703a2f2f7777772e77332e6f7260408201527f672f313939392f786c696e6b2220783d223070782220793d223070782220776960608201527f6474683d22323030707822206865696768743d2232303070782220766965774260808201527f6f783d2230203020323030203230302220656e61626c652d6261636b67726f7560a08201527f6e643d226e65772030203020323030203230302220786d6c3a73706163653d2260c08201527f7072657365727665223e0000000000000000000000000000000000000000000060e082015250565b600061333f60ea836131f4565b915061334a826131ff565b60ea82019050919050565b7f3c696d6167652077696474683d2232303022206865696768743d22323030222060008201527f783d22302220793d22302220687265663d220000000000000000000000000000602082015250565b60006133b16032836131f4565b91506133bc82613355565b603282019050919050565b60006133d28261270a565b6133dc81856131f4565b93506133ec818560208601612726565b80840191505092915050565b7f222f3e0000000000000000000000000000000000000000000000000000000000600082015250565b600061342e6003836131f4565b9150613439826133f8565b600382019050919050565b7f203c212d2d2054657874202d2d3e000000000000000000000000000000000000600082015250565b600061347a600e836131f4565b915061348582613444565b600e82019050919050565b7f203c7465787420783d223130302220793d223138352220746578742d616e636860008201527f6f723d226d6964646c652220666f6e742d73697a653d2231352220666f6e742d60208201527f66616d696c793d2274696d6573206e657720726f6d616e222066696c6c3d227760408201527f68697465223e2047616d6553636f72653a200000000000000000000000000000606082015250565b60006135386072836131f4565b915061354382613490565b607282019050919050565b7f3c2f746578743e00000000000000000000000000000000000000000000000000600082015250565b60006135846007836131f4565b915061358f8261354e565b600782019050919050565b7f3c2f7376673e0000000000000000000000000000000000000000000000000000600082015250565b60006135d06006836131f4565b91506135db8261359a565b600682019050919050565b60006135f182613332565b91506135fc826133a4565b915061360882886133c7565b915061361382613421565b915061361e826133a4565b915061362a82876133c7565b915061363582613421565b9150613640826133a4565b915061364c82866133c7565b915061365782613421565b9150613662826133a4565b915061366e82856133c7565b915061367982613421565b91506136848261346d565b915061368f8261352b565b915061369b82846133c7565b91506136a682613577565b91506136b1826135c3565b91508190509695505050505050565b7f506c65617365206d696e7420612067616d6520736f756c206e6674206174206660008201527f6972737400000000000000000000000000000000000000000000000000000000602082015250565b600061371c602483612715565b9150613727826136c0565b604082019050919050565b6000602082019050818103600083015261374b8161370f565b9050919050565b7f4f776e6572206e6f74206d617463680000000000000000000000000000000000600082015250565b6000613788600f83612715565b915061379382613752565b602082019050919050565b600060208201905081810360008301526137b78161377b565b9050919050565b7f4552433732313a20696e76616c696420746f6b656e2049440000000000000000600082015250565b60006137f4601883612715565b91506137ff826137be565b602082019050919050565b60006020820190508181036000830152613823816137e7565b9050919050565b7f43616e206f6e6c79206d696e74206f6e652067616d6520736f756c206e66742060008201527f7065722077616c6c65742e000000000000000000000000000000000000000000602082015250565b6000613886602b83612715565b91506138918261382a565b604082019050919050565b600060208201905081810360008301526138b581613879565b9050919050565b6000819050919050565b6138d76138d2826127bc565b6138bc565b82525050565b60008160601b9050919050565b60006138f5826138dd565b9050919050565b6000613907826138ea565b9050919050565b61391f61391a8261283f565b6138fc565b82525050565b600061393182866138c6565b602082019150613941828561390e565b60148201915061395182846138c6565b602082019150819050949350505050565b7f4e487b7100000000000000000000000000000000000000000000000000000000600052601260045260246000fd5b600061399c826127bc565b91506139a7836127bc565b9250826139b7576139b6613962565b5b828206905092915050565b7f4552433732313a2061646472657373207a65726f206973206e6f74206120766160008201527f6c6964206f776e65720000000000000000000000000000000000000000000000602082015250565b6000613a1e602983612715565b9150613a29826139c2565b604082019050919050565b60006020820190508181036000830152613a4d81613a11565b9050919050565b7f4552433732314d657461646174613a2055524920717565727920666f72206e6f60008201527f6e6578697374656e7420746f6b656e0000000000000000000000000000000000602082015250565b6000613ab0602f83612715565b9150613abb82613a54565b604082019050919050565b60006020820190508181036000830152613adf81613aa3565b9050919050565b7f4c61726f6e610000000000000000000000000000000000000000000000000000600082015250565b6000613b1c6006836131f4565b9150613b2782613ae6565b600682019050919050565b6000613b3d82613b0f565b9150819050919050565b7f7b226e616d65223a220000000000000000000000000000000000000000000000600082015250565b6000613b7d6009836131f4565b9150613b8882613b47565b600982019050919050565b7f222c20226465736372697074696f6e223a220000000000000000000000000000600082015250565b6000613bc96012836131f4565b9150613bd482613b93565b601282019050919050565b7f222c2022696d6167655f64617461223a20220000000000000000000000000000600082015250565b6000613c156012836131f4565b9150613c2082613bdf565b601282019050919050565b7f646174613a696d6167652f7376672b786d6c3b6261736536342c000000000000600082015250565b6000613c61601a836131f4565b9150613c6c82613c2b565b601a82019050919050565b7f227d000000000000000000000000000000000000000000000000000000000000600082015250565b6000613cad6002836131f4565b9150613cb882613c77565b600282019050919050565b6000613cce82613b70565b9150613cda82866133c7565b9150613ce582613bbc565b9150613cf182856133c7565b9150613cfc82613c08565b9150613d0782613c54565b9150613d1382846133c7565b9150613d1e82613ca0565b9150819050949350505050565b7f646174613a6170706c69636174696f6e2f6a736f6e3b6261736536342c000000600082015250565b6000613d61601d836131f4565b9150613d6c82613d2b565b601d82019050919050565b6000613d8282613d54565b9150613d8e82846133c7565b915081905092915050565b7f4f776e61626c653a206e6577206f776e657220697320746865207a65726f206160008201527f6464726573730000000000000000000000000000000000000000000000000000602082015250565b6000613df5602683612715565b9150613e0082613d99565b604082019050919050565b60006020820190508181036000830152613e2481613de8565b9050919050565b7f4552433732313a207472616e736665722066726f6d20696e636f72726563742060008201527f6f776e6572000000000000000000000000000000000000000000000000000000602082015250565b6000613e87602583612715565b9150613e9282613e2b565b604082019050919050565b60006020820190508181036000830152613eb681613e7a565b9050919050565b7f4552433732313a207472616e7366657220746f20746865207a65726f2061646460008201527f7265737300000000000000000000000000000000000000000000000000000000602082015250565b6000613f19602483612715565b9150613f2482613ebd565b604082019050919050565b60006020820190508181036000830152613f4881613f0c565b9050919050565b7f4e487b7100000000000000000000000000000000000000000000000000000000600052601160045260246000fd5b6000613f89826127bc565b91507fffffffffffffffffffffffffffffffffffffffffffffffffffffffffffffffff8203613fbb57613fba613f4f565b5b600182019050919050565b6000613fd1826127bc565b9150613fdc836127bc565b925082613fec57613feb613962565b5b828204905092915050565b6000614002826127bc565b915061400d836127bc565b925082820390508181111561402557614024613f4f565b5b92915050565b6000614036826127bc565b9150614041836127bc565b925082820190508082111561405957614058613f4f565b5b92915050565b7f4e487b7100000000000000000000000000000000000000000000000000000000600052603260045260246000fd5b7f4f776e61626c653a2063616c6c6572206973206e6f7420746865206f776e6572600082015250565b60006140c4602083612715565b91506140cf8261408e565b602082019050919050565b600060208201905081810360008301526140f3816140b7565b9050919050565b7f4552433732313a20617070726f766520746f2063616c6c657200000000000000600082015250565b6000614130601983612715565b915061413b826140fa565b602082019050919050565b6000602082019050818103600083015261415f81614123565b9050919050565b6000614171826127bc565b915061417c836127bc565b925082820261418a816127bc565b915082820484148315176141a1576141a0613f4f565b5b5092915050565b7f4552433732313a207472616e7366657220746f206e6f6e20455243373231526560008201527f63656976657220696d706c656d656e7465720000000000000000000000000000602082015250565b6000614204603283612715565b915061420f826141a8565b604082019050919050565b60006020820190508181036000830152614233816141f7565b9050919050565b7f546f6b656e206e6f74207472616e7366657261626c6500000000000000000000600082015250565b6000614270601683612715565b915061427b8261423a565b602082019050919050565b6000602082019050818103600083015261429f81614263565b9050919050565b600081519050919050565b600082825260208201905092915050565b60006142cd826142a6565b6142d781856142b1565b93506142e7818560208601612726565b6142f081612750565b840191505092915050565b60006080820190506143106000830187612851565b61431d6020830186612851565b61432a6040830185612a47565b818103606083015261433c81846142c2565b905095945050505050565b6000815190506143568161267b565b92915050565b60006020828403121561437257614371612645565b5b600061438084828501614347565b91505092915050565b7f4552433732313a206d696e7420746f20746865207a65726f2061646472657373600082015250565b60006143bf602083612715565b91506143ca82614389565b602082019050919050565b600060208201905081810360008301526143ee816143b2565b9050919050565b7f4552433732313a20746f6b656e20616c7265616479206d696e74656400000000600082015250565b600061442b601c83612715565b9150614436826143f5565b602082019050919050565b6000602082019050818103600083015261445a8161441e565b905091905056fe4142434445464748494a4b4c4d4e4f505152535455565758595a6162636465666768696a6b6c6d6e6f707172737475767778797a303132333435363738392b2fa264697066735822122066ffab445b3c15de9f088042620574c32e47b34fb7df854b948a7bd19590de1a64736f6c63430008120033",
  "linkReferences": {},
  "deployedLinkReferences": {}
}